:020000040800F2
:1000000000800120D91100082912000829120008D7
:100010002912000829120008291200080000000017
:10002000000000000000000000000000291200088D
:1000300029120008000000002912000829120008F7
:1000400000000000291200082912000829120008E7
:100050002912000829120008291200082912000894
:100060002912000829120008291200082912000884
:100070002912000829120008291200082912000874
:1000800029120008291200082912000800000000A7
:10009000000000000000000000000000291200081D
:1000A0002912000829120008291200082912000844
:1000B0002912000829120008291200082912000834
:1000C0002912000829120008291200082912000824
:1000D0002912000829120008291200080000000057
:1000E0002912000829120008291200080000000047
:1000F00000000000000000000000000029120008BD
:100100000000000029120008291200082912000826
:1001100000000000000000000000000000000000DF
:1001200029120008291200082912000829120008C3
:10013000291200080000000000000000000000007C
:10014000000000000000000000000000291200086C
:100150002912000829120008291200082912000893
:100160002912000829120008000000000000000009
:10017000000000000000000000000000000000007F
:10018000000000000000000000000000000000006F
:040190002912000828
:1001940010B5054C237833B9044B13B10448AFF3BD
:1001A40000800123237010BD000000200000000027
:1001B4007412000808B5034B1BB103490348AFF39D
:1001C400008008BD00000000040000207412000834
:1001D40080B485B000AFF860B9601346FB71FB686A
:1001E4001B68BA685200032101FA02F2D2431A4092
:1001F400FB681A60FB681B68F979BA68520001FA57
:1002040002F21A43FB681A6000BF1437BD465DF85A
:10021400047B704780B485B000AFF860B9601346C2
:10022400FB71FB68DB68BA685200032101FA02F231
:10023400D2431A40FB68DA60FB68DB68F979BA6874
:10024400520001FA02F21A43FB68DA6000BF143765
:10025400BD465DF8047B704780B485B000AFF8609C
:10026400B9601346FB71BB68072B15D8FB681B6A82
:10027400BA6892000F2101FA02F2D2431A40FB68D5
:100284001A62FB681B6AF979BA68920001FA02F2F1
:100294001A43FB681A6216E0FB685B6ABA68083A9C
:1002A40092000F2101FA02F2D2431A40FB685A620B
:1002B400FB685B6AF979BA68083A920001FA02F2BB
:1002C4001A43FB685A6200BF1437BD465DF8047BCD
:1002D4007047000080B400AF144B1B6C134A43F00A
:1002E40002031364124B00229A62114B40F23F62E4
:1002F400DA620F4B00225A620D4B9B690C4A43F49D
:10030400C04393610A4BDB69094A43F06003D3613C
:10031400074BDB69064A43F4C043D361044B012213
:100324001A6000BFBD465DF8047B70470038024088
:100334000004004080B485B000AFF860B960134693
:10034400FB712B4AFB68B2FBF3F32A4A013BD362ED
:10035400FB79013B032B43D801A252F823F000BFE1
:100364007503000891030008AD030008C9030008E1
:10037400204BDB6A0133BA6802FB03F31E4AA2FB7B
:1003840003235B091B4A013B53632AE0194BDB6AD5
:100394000133BA6802FB03F3174AA2FB03235B0988
:1003A400144A013B93631CE0124BDB6A0133BA68C5
:1003B40002FB03F3104AA2FB03235B090D4A013B32
:1003C400D3630EE00B4BDB6A0133BA6802FB03F321
:1003D400094AA2FB03235B09064A013B136400E0BC
:1003E40000BF00BF1437BD465DF8047B704700BFF3
:1003F4000024F400000400401F85EB5180B400AFDA
:10040400204B1B6C1F4A43F4003313641D4B1B6BBE
:100414001C4A43F0010313631B4B1B681A4A43F045
:1004240020031360184B1B68174A43F080031360C2
:10043400154B1B6A144A43F4E0631362124B1B6AA4
:10044400114A43F4E0431362104BDB680F4A43F450
:100454000053D3600D4B9B680C4A43F00303936035
:100464000A4B9B68094A43F4D0639360074BDB68EB
:10047400064A43F00C03D36000BFBD465DF8047B1D
:10048400704700BF003802400000024000440040B2
:1004940080B485B000AF78600B467B800023FB738B
:1004A4000FE0FB7B7A6813441A780C4B5A6000BF48
:1004B4000A4B1B6803F04003002BF9D0FB7B01338C
:1004C400FB73FB7B9BB27A889A42EAD800BF00BFD9
:1004D4001437BD465DF8047B704700BF00440040FC
:1004E40080B500AF1A4B1B6B194A43F00103136329
:1004F400174B1B6B164A43F00203136300220721B8
:100504001448FFF765FE002203211248FFF760FE3E
:10051400002204210F48FFF75BFE002205210D484D
:10052400FFF756FE022207210A48FFF773FE022254
:1005340003210848FFF76EFE022204210548FFF755
:1005440069FE022205210348FFF764FE00BF80BD57
:10055400003802400004024080B500AF184B1B6B0A
:10056400174A43F002031363154B1B6B144A43F001
:1005740004031363012206211248FFF729FE022215
:1005840007211048FFF724FE022208210D48FFF737
:100594001FFE022209210B48FFF71AFE022207213F
:1005A4000848FFF759FE022208210648FFF754FEC7
:1005B400022209210348FFF74FFE00BF80BD00BFA0
:1005C400003802400008024080B500AF064B1B6BA8
:1005D400054A43F00403136301220A210348FFF789
:1005E400F7FD00BF80BD00BF003802400008024094
:1005F40080B400AF174B1B6B164A43F0040313631C
:10060400154B1B68144A43F010031360124B1B680C
:10061400114A43F0200313600E4B5B6C0D4A43F404
:10062400807353640D4B5B6B0C4A43F00C035363B0
:100634000A4B9B68094A43F002039360074B9B688B
:10064400064A43F00103936000BFBD465DF8047B96
:10065400704700BF003802400008024000200140FB
:1006640080B400AF0A4B9B68094A43F0804393600F
:1006740000BF074B1B6803F00203002BF9D0044BA7
:10068400DB6C9BB21846BD465DF8047B704700BF27
:100694000020014080B485B000AF78600023FB6087
:1006A4000CE00023BB6002E0BB680133BB60BB68A5
:1006B400B3F57A5FF8D3FB680133FB60FA687B68B3
:1006C4009A42EED300BF00BF1437BD465DF8047BE9
:1006D400704780B483B000AF786039607B681B6872
:1006E4003A685200012101FA02F21A437B681A6047
:1006F4007B681B683A6852000132012101FA02F258
:10070400D2431A407B681A6000BF0C37BD465DF8BF
:10071400047B704780B483B000AF786039607B6835
:100724005B6901213A6801FA02F21A437B685A6153
:1007340000BF0C37BD465DF8047B704780B483B0BE
:1007440000AF786039607B685B6901213A6801FA1F
:1007540002F2D2431A407B685A6100BF0C37BD468F
:100764005DF8047B704780B483B000AF00237B60E6
:1007740000237B6002E07B6801337B607B6844F28A
:100784009F129342F7D900BF00BF0C37BD465DF8F6
:10079400047B704780B500AF1C4B1B6B1B4A43F0B6
:1007A40001031363194B1B6B184A43F002031363D1
:1007B40000211748FFF78DFF01211548FFF789FF36
:1007C4000C211448FFF785FF0D211248FFF781FF24
:1007D4000E211048FFF77DFF0F210E48FFF779FF28
:1007E4003321002000F018F83221002000F014F822
:1007F4002821002000F010F80C21002000F00CF853
:100804000121002000F008F800BF80BD003802403C
:10081400000002400004024080B582B000AF0346ED
:100824000A46FB711346BB7197F90630002B04DAB4
:100834000F214F48FFF76EFF03E00F214C48FFF7ED
:100844007DFFBB7903F04003002B04D00E21484800
:10085400FFF760FF03E00E214548FFF76FFFBB7908
:1008640003F02003002B04D00D214148FFF752FF71
:1008740003E00D213E48FFF761FFBB7903F010034D
:10088400002B04D00C213A48FFF744FF03E00C216D
:100894003748FFF753FFFB79002B04D0002135487C
:1008A400FFF738FF03E000213248FFF747FF01213B
:1008B4003048FFF72FFFFFF756FF01212D48FFF7C0
:1008C4003DFFFFF750FFBB7903F00803002B04D072
:1008D4000F212748FFF71EFF03E00F212448FFF7ED
:1008E4002DFFBB7903F00403002B04D00E21204814
:1008F400FFF710FF03E00E211D48FFF71FFFBB7930
:1009040003F00203002B04D00D211948FFF702FF66
:1009140003E00D211648FFF711FFBB7903F0010333
:10092400002B04D00C211248FFF7F4FE03E00C2145
:100934000F48FFF703FFFB79002B04D000210D487B
:10094400FFF7E8FE03E000210A48FFF7F7FE012164
:100954000848FFF7DFFEFFF706FF01210548FFF710
:10096400EDFEFFF700FF00BF0837BD4680BD00BFA6
:10097400000402400000024080B584B000AF03468A
:100984003960FB710023FB73FB7919460020FFF7E4
:1009940043FF0DE0FB7B3A6813441B7819460120A2
:1009A400FFF73AFF3B6801333B60FB7B102B06D813
:1009B400FB7B3A6813441B78002BEBD100E000BFAB
:1009C40000BF1037BD4680BD80B584B000AF7860ED
:1009D40039600023FB600023FB727B68FB60FA68CC
:1009E400354B83FB02139910D317C91A0B469B008E
:1009F4000B445B00D11A0B46BB72FB682E4A82FB88
:100A040003129210DB17D31AFB60FA682A4B83FB9C
:100A140002139910D317C91A0B469B000B445B00B1
:100A2400D11A0B467B72FB68234A82FB0312921095
:100A3400DB17D31AFB60FA681F4B83FB0213991070
:100A4400D317C91A0B469B000B445B00D11A0B4603
:100A54003B72FB68184A82FB03129210DB17D31A0D
:100A6400FB723B68DBB219460020FFF7D5FEFB7A28
:100A740043F03003DBB219460120FFF7CDFE3B7A89
:100A840043F03003DBB219460120FFF7C5FE7B7A41
:100A940043F03003DBB219460120FFF7BDFEBB7AF9
:100AA40043F03003DBB219460120FFF7B5FE00BF67
:100AB4001037BD4680BD00BF6766666680B584B0EA
:100AC40000AFFFF70DFDFFF747FDFFF77DFDFFF7D3
:100AD40001FCFFF793FCFFF75DFEFFF789FD864AF3
:100AE4003B1D92E8030083E803003B1D08211846E0
:100AF400FFF7CEFCFFF7B4FD03461A46642302FB5E
:100B040003F3002B01DA03F6FF731B13FB81FB894C
:100B14005A2B04D979498020FFF72EFF0EE0FB8978
:100B2400192B07D9FB89592B04D875498020FFF765
:100B340023FF03E073498020FFF71EFFFB89C021D8
:100B44001846FFF741FF7049C420FFF715FF322014
:100B5400FFF7A0FD6D4B1B69DBB223F07F03DAB214
:100B64006B4B1A70694B1B69DBB203F00803DAB2F2
:100B7400684B1A70654B1B69DBB203F01003DAB2E1
:100B8400654B1A70614B1B69DBB203F02003DAB2C8
:100B9400624B1A705E4B1A78614B1B789A4211D1E2
:100BA4005C4B1A785F4B1B789A420BD15A4B1A78DC
:100BB4005D4B1B789A4205D1584B1A785B4B1B78D6
:100BC4009A4297D03220FFF765FD504B1B69DBB288
:100BD40023F07F03DAB24E4B1A704C4B1B69DBB225
:100BE40003F00803DAB24B4B1A70484B1B69DBB2B3
:100BF40003F01003DAB2484B1A70444B1B69DBB2A2
:100C040003F02003DAB2454B1A70414B1A78444B77
:100C14001B789A4212D13F4B1A78424B1B789A4266
:100C24000CD13D4B1A78404B1B789A4206D13B4B72
:100C34001A783E4B1B789A423FF45CAF344B1B78D6
:100C4400002B0ED03A4B1B780133DAB2384B1A70B2
:100C5400374B1B7803F00103DAB2354B1A7000F0FE
:100C64006FF82C4B1B78002B0ED0324B1B780133C2
:100C7400DAB2304B1A702F4B1B7803F00303DAB24D
:100C84002C4B1A7000F0A2F8234B1B78002B0ED0CB
:100C9400294B1B780133DAB2274B1A70264B1B7889
:100CA40003F00103DAB2244B1A7000F059F91B4B1C
:100CB4001B78002B0ED0214B1B780133DAB21F4B6B
:100CC4001A701E4B1B7803F00103DAB21B4B1A7027
:100CD40000F0F8F90E4B1A78114B1A700D4B1A7874
:100CE400104B1A700C4B1A780F4B1A700B4B1A7866
:100CF4000E4B1A70FEE600BFCC1200088C120008DE
:100D0400A0120008B4120008C8120008000402402F
:100D14001C0000201D0000201E0000201F000020D9
:100D240020000020210000202200002023000020B9
:100D34002400002025000020260000202700002099
:100D4400B0B58CB000AF1C4B1B78002B17D01B4BDD
:100D54005B691A4A43F040035361194B07F11804C5
:100D64001D460FCD0FC495E80300206004342170A4
:100D740007F1180315211846FFF78AFB18E00F4BFB
:100D84005B690E4A23F0400353610E4B3C461D46FB
:100D94000FCD0FC495E803002060043421803B4646
:100DA40016211846FFF774FB01210748FFF7C6FC1C
:100DB40000BF3037BD46B0BD24000020000802400B
:100DC400D4120008EC12000800000240B0B590B044
:100DD40000AF594B1B78002B00F0A980574B1B78B0
:100DE400012B1AD1564A07F1340307CA03C31A80E8
:100DF4000233120C1A7007F134030B211846FFF763
:100E040047FB504B1B6A4F4A43F0300313620222E4
:100E14005A210120FFF78EFA89E0484B1B78022BF8
:100E240017D1494A07F1280307CA83E8070007F1E5
:100E340028030C211846FFF72BFB424B1B6A414A3F
:100E440043F03003136202220A210120FFF772FAF1
:100E54006DE03A4B1B78032B36D13C4B1B78002BAF
:100E640065D13B4B1B78002B61D13A4B07F114043D
:100E74001D460FCD0FC42B681A46228002341B0C6A
:100E8400237007F1140313211846FFF701FB2D4BC0
:100E94001B6A2C4A43F4407313620322322101205B
:100EA400FFF748FA274B1B6A264A43F44053136260
:100EB400042232210120FFF73DFA274B5B69264AC1
:100EC40043F48063536132E0244B3C461D460FCD0E
:100ED4000FC42B6823603B4614211846FFF7D8FA49
:100EE400022263210120FFF725FA03226321012056
:100EF400FFF720FA042263210120FFF71BFA114BAC
:100F04001B6A104A23F0300313620E4B1B6A0D4A0E
:100F140023F4407313620B4B1B6A0A4A23F44053B5
:100F240013620D4B5B690C4A23F48063536100BF69
:100F34004037BD46B0BD00BF24000020250000207E
:100F440004130008000400401013000826000020C9
:100F5400270000201C13000800080240301300087A
:100F6400B0B598B000AF4F4B1B78002B00F09680C3
:100F74004D4B1B78002B6ED04C4B1B78002B22D191
:100F84004B4B07F148041D460FCD0FC495E80300F1
:100F940020600434218007F1480316211846FFF726
:100FA40077FA444B1B6A434A43F4407313620322A7
:100FB40032210120FFF7BEF93F4B5B693E4A43F4FF
:100FC400806353616AE03D4B07F130041D460FCD49
:100FD4000FC495E8030020600434218002340B0C14
:100FE400237007F1300317211846FFF751FA344BE9
:100FF40007F118041D460FCD0FC495E803002060C7
:101004000434218007F1180316211846FFF740FA2B
:10101400254B00221A70254B00221A7003226321EB
:101024000120FFF787F9042263210120FFF782F9E9
:10103400204B1B6A1F4A23F4407313621D4B1B6A27
:101044001C4A23F4405313621B4B5B691A4A23F472
:101054008063536122E0194B3C461D460FCD0FC4FB
:1010640095E8030020600434218002340B0C2370C3
:101074003B4617211846FFF70BFA03226321012090
:10108400FFF758F90B4B1B6A0A4A23F440731362A7
:10109400094B5B69084A23F48063536100BF6037DE
:1010A400BD46B0BD240000202600002027000020FB
:1010B4004413000800040040000802405C130008C8
:1010C40074130008B0B58CB000AF3B4B1B78002BF9
:1010D4006DD03A4B1B78002B49D0394B1B78002B31
:1010E40022D1384B07F118041D460FCD0FC495E8E3
:1010F400030020600434217007F1180315211846F9
:10110400FFF7C6F9304B1B6A2F4A43F4405313626E
:10111400042232210120FFF70DF92C4B5B692B4A85
:1011240043F48063536142E0254B00221A70234B41
:1011340000221A70032263210120FFF7FBF8042226
:1011440063210120FFF7F6F81F4B1B6A1E4A23F4A4
:10115400407313621C4B1B6A1B4A23F440531362F3
:101164001A4B5B69194A23F4806353611FE0184BDF
:101174003C461D460FCD0FC495E80300206004349F
:1011840021803B4616211846FFF782F90422632189
:101194000120FFF7CFF80C4B1B6A0B4A23F4405392
:1011A40013620A4B5B69094A23F48063536100BFED
:1011B4003037BD46B0BD00BF24000020270000200A
:1011C400260000208C1300080004004000080240A0
:1011D400741300080D488546AFF300800C480D4990
:1011E4000D4A002302E0D458C4500433C4188C427E
:1011F400F9D30A4A0A4C002301E013600432A242E4
:10120400FBD300F011F8FFF759FCFEE70080012042
:101214000000002000000020AC13000800000020A3
:1012240028000020FEE7000070B50D4D0D4C641B36
:10123400A4100026A64209D10B4D0C4C00F018F85E
:10124400641BA4100026A64205D170BD55F8043BCA
:1012540098470136EEE755F8043B98470136F2E724
:10126400A4130008A4130008A4130008A81300087A
:10127400F8B500BFF8BC08BC9E467047F8B500BF7F
:08128400F8BC08BC9E4670474F
:10128C004675656C204C6576656C3A2046756C6CC1
:10129C00000000004675656C204C6576656C3A2044
:1012AC00476F6F64000000004675656C204C6576D6
:1012BC00656C3A20204C6F77000000002500000080
:1012CC0053746172740D0A0049676E6974696F6EAC
:1012DC0020537461747573204F4E0D0A000000008A
:1012EC0049676E6974696F6E2053746174757320ED
:1012FC004F46460D0A0000004C6F77204265616D29
:10130C000D0A000048696768204265616D0D0A008E
:10131C005061726B696E67204C69676874204F4E20
:10132C000D0A00005061726B696E67204C6967682A
:10133C0074204F46460D0A00526967687420496E46
:10134C006469636174696F6E204F4E0D0A00000072
:10135C00526967687420496E6469636174696F6E61
:10136C00204F46460D0A00004C65667420496E6499
:10137C0069636174696F6E204F46460D0A00000068
:10138C004C65667420496E6469636174696F6E2084
:08139C004F4E0D0A0000000095
:0413A400B901000883
:0413A80095010008A3
:04000005080011D905
:00000001FF
